:020000041000EA
:1000000000B5324B212058609868022188439860DF
:10001000D860186158612E4B002199600221596106
:100020000121F02299502B49196001219960352056
:1000300000F044F80222904214D00621196600F024
:1000400034F8196E01211966002018661A6600F04E
:100050002CF8196E196E196E052000F02FF8012189
:100060000842F9D1002199601B49196000215960AB
:100070001A491B48016001219960EB211966A021F2
:10008000196600F012F800219960164914480160C1
:100090000121996001BC002800D000471248134993
:1000A000086003C880F30888084703B5996A0420EC
:1000B0000142FBD001200142F8D103BD02B5186610
:1000C0001866FFF7F2FF186E186E02BD00000240BE
:1000D000000000180000070000035F00212200005C
:1000E000F4000018222000A00001001008ED00E03C
:1000F00000000000000000000000000074B24E7A12
:1001000000200420F7010010CB010010CD010010E9
:10011000C9010010C9010010C9010010C901001077
:10012000C9010010C9010010C9010010CF01001061
:10013000C9010010C9010010D1010010D301001045
:10014000C1010010C1010010C1010010C101001067
:10015000C1010010C1010010C1010010C101001057
:10016000C1010010C1010010C1010010C101001047
:10017000C1010010C1010010C1010010C101001037
:10018000C1010010C1010010C1010010C101001027
:10019000C1010010C1010010C1010010C101001017
:1001A000C1010010C1010010C1010010C101001007
:1001B000C1010010C1010010C1010010C1010010F7
:1001C000EFF30580103800BE00BE00BE00BE00BECA
:1001D00000BE00BEF2EB887174DB04109CDB0410DF
:1001E0003802001090A31AE71E481F49086006C88D
:1001F00081F3088810471D480068002801D019487D
:10020000F3E70DA40ECC002902D000F012F8F9E7B4
:100210001749184A002000E001C19142FCD116495B
:100220008847164988471649884700BEFDE701C937
:1002300001C29A42FBD370479CDB0410E00000200F
:10024000F0050020ACE004100000042000000420B1
:10025000ACE0041000100420001004200000000096
:10026000704700000000000008ED00E0000000D032
:10027000F0050020B0C600205D40001021060010EF
:1002800055400010F8B5C0460448054B10B58342F0
:1002900003D0044B002B00D0984710BDF005002080
:1002A000F00500200000000006480749091A8B10DD
:1002B000C90FC91810B5491003D0044B002B00D04A
:1002C000984710BDF0050020F00500200000000058
:1002D00010B5074C2378002B09D1FFF7D5FF054B4C
:1002E000002B02D0044800E000BF0123237010BDA2
:1002F000C008002000000000F4430110054B10B5B9
:10030000002B03D00449054800E000BFFFF7CCFFF5
:1003100010BDC04600000000C4080020F4430110D6
:1003200010B50800024906F0C5FE002010BDC04609
:100330003503001070B50E001400A0B0002A23D0C1
:1003400000237F226946200006F0F2F800236A4667
:1003500016491354684613F0A7FE00281AD001214D
:1003600000200EF005F9124B1D68280013F0D8FC90
:10037000012382B22900300009F088FB30000AF026
:10038000FDFA200005F0A4FF300007F0D3FA0020AA
:1003900020B070BD6846074913F086FE0028E2D001
:1003A000002100200EF0E4F8DDE7C046F84301101C
:1003B000D8040020044401100F230A00F0B5DE46E3
:1003C00057464E4645469A430823E0B509014DB2CB
:1003D00093461A432B4387B0DBB2039302AB9C4690
:1003E0000F24D2B26444227092469626002200273F
:1003F0009146B6000123009227212200804613F087
:100400000BFC3000390001F08BFA5A460C210A43EC
:1004100022704A4601230092404622001B3113F00D
:10042000FBFB3000390001F07BFA524622704A464D
:100430000123009227212200404613F0EDFB3000FB
:10044000390001F06DFA4A46039B2721237040468C
:1004500001230092220013F0DFFB3000390001F08D
:100460005FFA0C214A460D43012325704046009255
:100470001B31220013F0D0FB3000390001F050FA9C
:10048000039B220023704B462721009340460133F3
:1004900013F0C2FB3000390001F042FA07B0F0BCA3
:1004A000BB46B246A946A046F0BDC0460F230A008F
:1004B000F0B5DE4657464E4645469A430923E0B519
:1004C00009014DB293461A432B4387B0DBB2039325
:1004D00002AB9C460F24D2B2644422709246962608
:1004E000002200279146B600012300922721220016
:1004F000804613F091FB3000390001F011FA5A46A2
:100500000D210A4322704A460123009240462200F0
:100510001A3113F081FB3000390001F001FA524624
:1005200022704A460123009227212200404613F000
:1005300073FB3000390001F0F3F94A46039B272191
:100540002370404601230092220013F065FB300027
:10055000390001F0E5F90D214A460D4301232570CC
:10056000404600921A31220013F056FB3000390049
:1005700001F0D6F9039B220023704B4627210093FC
:100580004046013313F048FB3000390001F0C8F950
:1005900007B0F0BCBB46B246A946A046F0BDC04677
:1005A00010B50400322001F0CFF920003321FFF70D
:1005B00003FF20003221FFF7FFFE20002821FFF774
:1005C000FBFE20000C21FFF7F7FE20000621FFF7BD
:1005D000F3FE01212000FFF7EFFE022001F0B4F945
:1005E000022001F0B1F910BD70B505000C008020AB
:1005F000C02182B06B460090019192002800260035
:10060000995CFFF7D9FE10362178002905D0280023
:100610000134FFF74BFFB442F6D102B070BDC046C3
:10062000F0B5DE4657464E464546E0B5934C95B08C
:100630009349200013F0C6FA0321022000F050F97C
:100640000321032000F04CF900220121022000F0D8
:1006500061F900220121032000F05CF92000FFF77E
:100660009FFF03F041FE0DF09FFF002805D0002200
:1006700020008449FFF7B8FFFEE701270DF0F8FEE0
:10068000814BA14604930CAB9846804B3C000593EC
:100690007F4B10AD9B467F4B9A464746464622000D
:1006A0000499280003F096FC002229004846FFF731
:1006B0009BFF059B07CB07C7594650463268764BD0
:1006C0000DF006FF002830D0C31D01D0831C02D1DD
:1006D0000436B742F0D1032C0CD00DF0D7FE6420C5
:1006E00001F032F90DF0C4FEFA20C00001F02CF93F
:1006F0000134D2E74C46C31D00D1A8E0831C0FD0C3
:1007000002006649280003F065FC00222900200051
:10071000FFF76AFF012220006149FFF765FFFEE74E
:100720002A00604B03CB03C2EFE74C465E4B00222E
:1007300019004046994603F04DFC01224146200035
:10074000FFF752FF012100200DF012FF00222000D0
:100750005649FFF749FF002701F0A2F9544E8023C4
:1007600036184F411B069F4202D30126514F764255
:10077000514B9A4653461B68002B02D05B68002BF6
:100780001FD10DF005FF0A2001F0DEF801F088F915
:1007900032003B00121A8B41002BEBDC01D1002A06
:1007A000E8D1002220004549FFF71EFF00224946FC
:1007B000404603F00FFC012241462000FFF714FFE2
:1007C000FEE7002220003E49FFF70EFF534618685F
:1007D0002900102204300DF0C3FC01222900200062
:1007E00006ADFFF701FF2900002012F0BFFE687977
:1007F0006B782A780390287932490290E878019042
:10080000A878009008A803F0E5FB002208A92000C2
:10081000FFF7EAFEFA20C00001F096F806F0C0FEED
:10082000051E1FD05022284906F02CF8002813D1AD
:10083000FF21280006F0A0F8002819D0234906F06F
:1008400047FC0DF0A5FE012001F07EF8F9E72A0033
:100850001F4B03CB03C258E7002220001D49FFF7BE
:10086000C3FEFEE702001C492000FFF7BDFEFEE7C5
:1008700002001A492000FFF7B7FEFEE7D805002066
:10088000A086010014440110244401109445011075
:10089000304401103C44011060EA0000584401104B
:1008A000604401105044011078440110D4440110F8
:1008B00080969800FFFFFF7F60B500206C44011018
:1008C0008044011088440110D460011021030010FD
:1008D00048440110B4440110A4440110C444011060
:1008E000094A83009A1810B5146840225440803297
:1008F0002240064CC000A44663441A60044B9C4648
:100900006044416010BDC04604C0014004D00140B5
:1009100000400140074B8000C3181B68C9009200CB
:100920000A435A400C231340034A94466044036030
:100930007047C04604C0014004D001408000002937
:1009400005D0064B9C460223604403607047044B6D
:100950009C46022360440360F8E7C04604E001407F
:1009600004F00140D0231B061B6830B50500584237
:1009700043412F205B4283430E48EC088446072006
:1009800028408000814020000B4D3C3063448000B3
:10099000A40041511B19002A05D0802292019446DF
:1009A0006344196030BDC0229201944663441960CB
:1009B000F8E7C0463041014000400140D023F0B587
:1009C000C6461B0698461B680C4F9B001600FA583B
:1009D00004000D0000B5104209D1290014430D2078
:1009E0003200FC5000F066F980BCB846F0BD01F062
:1009F000C7FA43461B689B00FA58EEE738C500204B
:100A000010B504000D2000F04FFAD0231B061B6820
:100A100002499B005A58A2435A5010BD38C50020C5
:100A20000123D0228340120693629361094A830016
:100A30009A1811684022514080320A400649C0008D
:100A40008C4663441A60054B9C4605236044436012
:100A50007047C04604C0014004D00140004001403E
:100A60000FB400B5084883B003F090FC049B002B42
:100A700007D005A91800019103F0D2FA034803F04A
:100A800085FC012003F0E4FAA0450110E0D7041032
:100A9000EFF3108072B6034A1368002BFCD0BFF34B
:100AA0005F8F70472C0100D0BFF35F8F0022024B95
:100AB0001A6080F3108870472C0100D070B5EFF3F6
:100AC000108C72B60D4D2B68002BFCD0BFF35F8FDE
:100AD0000724CB08C618C05C01230C40A3401C00AF
:100AE0000440034207D118433070BFF35F8F2C607E
:100AF0008CF3108870BD1000FFF7B2FF2C0100D0FE
:100B0000F8B54746CE46884680B5EFF3108C72B6EE
:100B1000214D2C68002CFCD0BFF35F8F9A422CD85B
:100B2000D4080727055D061901241740BC402C4254
:100B30001FD007210127894609E0D408055D061961
:100B40004C4639001440A1400C00294211D001321A
:100B50009342F2D201204042BFF35F8F00220E4B3E
:100B60001A608CF3108800280FDBC0BCB946B04671
:100B7000F8BD254310003570EEE7BFF35F8F00230B
:100B80002B608CF31088012040424346002BECD0B0
:100B90000898FFF765FFC0462C0100D030B5EFF391
:100BA000108C72B60A4C2368002BFCD0BFF35F8F09
:100BB000072301220B409A40CD08435D93434355E0
:100BC000BFF35F8F002323608CF3108830BDC046D5
:100BD0002C0100D0044A1078431CDBB2172B00D93B
:100BE000102313707047C046DC0400200021044B22
:100BF000044ABFF35F8F02C39342FAD17047C046E5
:100C0000000100D0800100D0054B064A1360064A5F
:100C1000136053609360D3601361536193617047B5
:100C20008080808000E400E004E400E01F2318409E
:100C30001E3B8340002905D0C021044A490053507F
:100C400013607047802201498B50FAE700E100E011
:100C500001238340014A13607047C04600E200E070
:100C600070B50D00EFF3108672B60F4A1368002BB3
:100C7000FCD0BFF35F8F0D4B10309B6884001B5975
:100C80000B4A934203D09D4201D001F079F9074B02
:100C90009B681D51BFF35F8FBFF35F8F0022024B34
:100CA0001A6086F3108870BD240100D000ED00E0CA
:100CB000C1010010F0B557464E46DE464546E0B548
:100CC00085B0060000911700EFF3108B72B66A4AE8
:100CD0001368002BFCD0BFF35F8F0025674B5D5777
:100CE0009A46002D00DA8BE06B00654C01935B198E
:100CF0009B009846A146C1444B4652469B7910360C
:100D00001370604BB6009B6899590B1B2F2B33D97E
:100D10005D4B994200D0ACE0019B42469C465B4B48
:100D20006544AD0063535A4B0232A218043B9B1A30
:100D30001B05584A5B0D651913436B80564B012107
:100D4000AB80FF23AB71009BEF71AB604B460B4355
:100D500019004C4B9B689951BFF35F8FBFF35F8FB6
:100D60000022454B1A608BF3108805B0F0BCBB46DF
:100D7000B246A946A046F0BD01200A008243D379BD
:100D80008C46BB4231D84546130044491B1B5B418E
:100D90005943090D3D4B63533D4B02356519043BE7
:100DA0005B1B1B053B4D5B0D2B43AA464D466B80E1
:100DB0000425AC465546E044131F44441B1B1B0549
:100DC0005B0D1D434B46997100999D809960494682
:100DD000DF71334B01431360BBE75800C01880003C
:100DE0002018C179B94211D902000623D356002B2D
:100DF000F3DA0293131D9A462A4B6146039319E0D6
:100E000001F0BEF8002553465D576DE790880293C8
:100E10004005131D9A46031561469C464046D4443E
:100E2000634604302018181AE0230005400D1B0209
:100E30001843039004235B429C46E14450464B46D2
:100E40001B1A1B055B0D9C46124B95719846634619
:100E5000404603439380019B5A199200039BA418B8
:100E6000A380029B0E4AA371009B2260E771A360DE
:100E70006FE701F085F84FE7240100D0A4C60020F9
:100E8000E004002000ED00E0C101001000A1FFFF20
:100E90001005002000E0FFFF01BDFFFFAAAA00002F
:100EA0000148804701BD0000F0B5DE4657464E467A
:100EB0004546E0B50C0083B0EFF3108872B6634A84
:100EC0001368002BFCD0BFF35F8F614B61499A68B8
:100ED000030010339F00D55900938D4243D0A542A3
:100EE00054D05D4EAA1B2F2A3DD85C4B9C461B68F4
:100EF0009A4601231A0099468240534613401F2206
:100F000001934B46024093409A46802263465046E6
:100F10009850BFF35F8FEFF305839B46002B37D0CC
:100F2000009B5B4501D001F02BF82A004B469A4309
:100F30009068844208D177E04B005B189B00F3185F
:100F40009868844236D01A00062151560029F3DAF7
:100F5000844255D0019B002B27D0C02251463F4BE5
:100F60005200995019603A4B9B68DD51BFF35F8F77
:100F7000BFF35F8F0022354B1A6088F3108803B0EF
:100F8000F0BCBB46B246A946A046F0BD0D00EAE75C
:100F90002A004B469A4390688442D5D106201056C9
:100FA000130000280ADA0D0032E0802351462B4A54
:100FB000D150D8E706201856002822DB420011182D
:100FC000890074188946A1689960E179D971062170
:100FD00061569971002925DBA488F11A640524154E
:100FE0004C440919E0240905490D24022143998044
:100FF00013181B4A9B001178F31899711070A9E718
:1010000013005946002914D1FF319171154991807F
:1010100013490A789A71144A9B1B5B415A43120D7B
:101020000A7097E71149E2E70620105613000028DE
:10103000C4DA0F4A0F49D21A083A5002400D014350
:1010400099800D4952080A43DA8083E7240100D0D1
:1010500000ED00E0C1010010E004002000E100E02C
:10106000A4C6002001BDFFFFAAAA000001BD000028
:101070001A05002000F0FFFF00F8FFFF10B58308FD
:10108000040003202040FF24054AC0009446844009
:1010900081409B0063441A68A2430A431A6010BD52
:1010A00000E400E070B501240443EFF30581EFF3A1
:1010B000108C72B6214A1368002BFCD0BFF35F8FEF
:1010C0001F4B05001F4AED1A6D416A43120D1E4D5C
:1010D0008900AE6852B27658A6421CD006215956F5
:1010E00091421CD012215956914222D01E215956AC
:1010F000914220D02A2159560324914210D0134BFB
:1011000019781A708171BFF35F8F00220B4B1A6040
:101110008CF3108870BDAB680D4C5C50EFE7002479
:101120006100091989005B18FF21997109499980AB
:10113000E5E70124F4E70224F2E7C046240100D0E9
:10114000E0040020AAAA000000ED00E0A4C60020F0
:10115000C101001001BDFFFF1F2110B5091A02488F
:10116000FFF71CFD10BDC046ACC6002010B5084BF3
:10117000084C82B001000093002205232000FFF7F5
:10118000BFFC002801DB1F23181A02B010BDC046A7
:10119000B0450110ACC6002070B504000E0015006B
:1011A000FFF718FD0100200000F006F8A680E5809A
:1011B000BFF35F8F70BDC046024B9C4661448900FF
:1011C0000160704740000034F8B5134D134E2C00F9
:1011D000FF27B5421ED22368002B0FD0FFF7FAFC81
:1011E00001002800FFF7E8FFA780BFF35F8F0834F6
:1011F000B4420FD223682500002BEFD1FFF7EAFCA1
:1012000001002800FFF7D8FF2771BFF35F8F083474
:10121000B442EFD3F8BDC046E8050020F005002039
:1012200010B50400FFF7D6FC01002000FFF7C4FF53
:10123000FF23A380BFF35F8F10BDC0460A4B196820
:10124000EFF3108072B60A68002AFCD0BFF35F8FFC
:101250001B68BFF35F8F00221A6080F3108840BFC5
:10126000002000217047C04658C60020F0B5DE4679
:1012700057464E464546E0B585B0EFF30582032359
:101280001340B64A9900575801229A40884693461F
:10129000B34B1A60B34B02935B46B34843630823D6
:1012A000FE5E002E35DABB881BB2002B00DBA8E007
:1012B000BB79002B00D0E9E00823F85E00281EDB94
:1012C00043007A691B18DB00D3189D68DC686B1C2F
:1012D00000D108E1A44801004144826A0B69AE1ABA
:1012E0009B1A9E4213D35A46036A1A420FD09E4855
:1012F00000F0CEFB8C4202DCCED18542CCD940BF7F
:1013000005B0F0BCBB46B246A946A046F0BD0D6193
:10131000EDE77A69730091469B19DB0099444B46CF
:101320009C68DD6800F0B4FB8D42BCDC00D1FEE0BF
:10133000002D00DAE3E04B46029A1B69934200D18C
:10134000D5E04A465288494694460822B85E62462D
:101350000004496910439847009001910099019A4F
:101360000B001000134300D1C9E013000A0000284D
:1013700000DBE0E020002900801A99414B4698608C
:10138000D96000229A5E002A00DA8CE753009C188C
:101390007D69E4002C190093A368E4689A468C42A6
:1013A00000DD80E702D1834200D97CE708239C4618
:1013B000BC443A8103976746009BB4463E000EE06A
:1013C0008C4200D1C5E01E000023F25E002A0BDB38
:1013D00053009C18E4002C19A768E468BA469B18CF
:1013E000DB00EB188C42EBDD330066469C464B4637
:1013F0001A806346039F1E80BB881BB2002B00DA55
:1014000056E73A69EFF3108172B61368002BFCD0EF
:10141000BFF35F8F0123BE885B42BB8036B23B695E
:10142000BFF35F8F00221A6081F31088002E00DA6C
:101430003EE73B0008333A0099467D6973009B19EB
:10144000DB00EB189968DC688C460820115E484682
:10145000002910DB009306E0A34240D00023F95E90
:101460003800002906DB4F007F18FF00EF19FB68EA
:10147000A342F1DD009B068000201E5E1980002E35
:10148000DCDA1700BB79002B00D115E70023BB7114
:101490003D000823F95E08354B1C00D12FE77C691D
:1014A0000800A44603E035004B1C00D106E74B00C2
:1014B0005B180A006146DB00CE18C95E73881BB258
:1014C000002BF0DA01235B42DC17B360F460824248
:1014D000EAD029803B89100033803A81E4E7BB6879
:1014E0006345BBD9C6E7631C00D0F3E6FFE64B4675
:1014F0005B699A461B6950469847002823D14B46A2
:101500001B883A693B81EFF3108372B6116800299A
:10151000FCD0BFF35F8F49467A880A803A697E80A3
:10152000BFF35F8F0021116083F31088BBE6844214
:1015300000D8FDE6B7E60C4800F0AAFA009B019C33
:10154000C01861411AE753461A685B68009201931C
:1015500004E7824500D836E746E7C0466CB5002070
:101560003C7005406D1200100040054070B52E4CD7
:101570002569002D04D00A212C48FFF71DFE70BDFF
:101580002B4E0321300000F079FAE660FFF722FBD2
:10159000284B03229C46D02322701B061B68012186
:1015A0006370254B6044A3600F23800020610220FC
:1015B000638063694942A1801980023119864731ED
:1015C0001D83585218315A5275325C39995218326B
:1015D0000131995218320131995218320131995220
:1015E000083518329D5202311832995218320131A1
:1015F00099521832013199521832013199521832E8
:10160000013199521832013199520C4B0C49DC606E
:1016100001303562FFF724FB01210320FFF706FBB1
:10162000084B1D60A7E7C0462805002058C60020CB
:101630000040054040000034FFFF10006CB5002062
:101640006D120010386005400048704728050020E2
:10165000F8B51F0008AB1B7804001600002B08D15A
:1016600000F01EFA32003B00121A8B41002B00DA08
:1016700053E02269EFF3108072B61368002BFCD0A0
:10168000BFF35F8F0223E15E63694A005218D20004
:101690009B18002937DB1A8862802269BFF35F8FAD
:1016A0000025156080F31088069A9E60DF601A613D
:1016B000079A5A615A8801325204520C101C002AAF
:1016C0001FD082B25880080410432669EFF31087B8
:1016D00072B63268002AFCD0BFF35F8FA2881A80EE
:1016E000A1802369BFF35F8F00221A6087F31088FF
:1016F0000B4923788C4601329A40E36863441A60B0
:10170000F8BD0120DDE72369BFF35F8F00221A6077
:1017100080F3108801204042F2E70020F0E7C04645
:101720003C20000070B501000469EFF3108C72B624
:1017300020680028FCD0BFF35F8F02200D5E4C694B
:1017400068004019C0002418002D37DB208848802D
:101750000869BFF35F8F002606608CF31088E36092
:1017600063880498013320615B0405985B0CA260D8
:1017700060611A1C002B1FD093B2280462801843AA
:101780000A69EFF3108C72B61368002BFCD0BFF31C
:101790005F8F8B8823808D800B69BFF35F8F002262
:1017A0001A608CF310880B7801329A40CB68084994
:1017B0008C4663441A6070BD0122DDE70B69BFF3FC
:1017C0005F8F00221A608CF3108801204042F2E7FC
:1017D0003C20000010B543890A1493421ADD5300DF
:1017E0009B184269DB00D3180469EFF3108C72B6C2
:1017F0002268002AFCD0BFF35F8F5A88090494B294
:10180000090C8A4208D00369BFF35F8F00221A6077
:101810008CF31088002010BD8022120214435C80DB
:10182000012302698371BFF35F8F002111608CF384
:101830001088044902788C469340C26801206244B3
:101840001360E8E73C200000F0B504000D00062618
:101850007642F717C64636196F4100B582B08F42FF
:1018600014D811D000F01CF932003B00121A8B4141
:10187000002B17DC002B47D02000290000F04EF988
:1018800002B080BCB846F0BD8642EBD900220023EE
:1018900016001F0000F004F932003B00121A8B41C1
:1018A000002BE7DD00F0FCF832003B00121A8B4100
:1018B000002B0ADB00230193154B320000931548DF
:1018C0003B00FFF72FFF0028D6DB00239C46B046E5
:1018D000114A124E736A9F4204D8B16A4145CBD275
:1018E0009F42C9D11168EFF3108072B60B68002BCC
:1018F000FCD0BFF35F8F1368BFF35F8F6146196041
:1019000080F3108820BFE5E7002AB5D0CAE7C046BB
:101910003D1200102805002058C600200040054058
:1019200070B504000D0000F0BBF880230019694178
:101930001B06994202D3012002494042FFF784FF6F
:1019400070BDC046FFFFFF7F70B5060000F0A8F82D
:10195000FA2204000D00002330000021920000F064
:10196000E1FF8023001969411B06994202D301203F
:1019700002494042FFF768FF70BDC046FFFFFF7F8E
:10198000F0B5CE46474680B504000D0083B0EFF3B6
:101990000587002F0DD0364A0020536A8B4203D3AF
:1019A000926A0130A24250D303B0C0BCB946B046DF
:1019B000F0BD304B9846DB689946434648461E7852
:1019C00000F066F80B00494602000436B600715874
:1019D00020008E1A2900801A99418F4211DC0ED006
:1019E00020BF234A0020536AAB42DDD3926A013004
:1019F000A242D9D2EB1A5A1E9341D8B2D4E78642FA
:101A0000EED900F04DF822002B00121A8B41002B6A
:101A100020DB00230193184B2200009340462B004B
:101A2000FFF780FE011E15DD114B2E005A6A95420C
:101A30001CD89B6AA34217D34046FFF7CBFE0C4A43
:101A40000020536A9E42AFD8D0E75B1A5A1E9341DA
:101A5000D8B2A9E7064A0020536AAB42A4D3926ADF
:101A60000120A242A0D2C5E79542E5D120BFE3E71D
:101A700000400540280500203D12001010B5024A24
:101A80000248FFF71BF810BDD8450110140B0020C9
:101A90000300416A0A00986A596A8A42FAD170477B
:101AA000034B596A0A00986A596A9142FAD1704701
:101AB0000040054070B504000D00174A536A190034
:101AC000966A536A8B42FAD13000190024184D41AE
:101AD000AB4216D813D0104B2A005B6A9D4203D943
:101AE0000D494B6A9342FCD3934207D10A4A02E064
:101AF000516A994202D1916AA142F9D370BDA642BE
:101B0000E9D9054B5B6A1C005A1CEFD00122012465
:101B10006442E5175242E3E700400540064A536A33
:101B20009942FCD807D1044B02E05A6A914202D193
:101B30009A6A8242F9D3704700400540F8B5040024
:101B400006200D0000F076F9002842D0364B3749C8
:101B5000E21853425A418023DB039C469205344BE2
:101B600062441A60334B1A6010000B689843FBD133
:101B70002D4B314AE31859424B4180215B0049000B
:101B80000620995200F056F92900C00000F058FBD9
:101B90000130C3091ED1402701226262A362266B75
:101BA000F30722D4E36A254B0620E51800232B60B7
:101BB000266300F03FF93900800000F041FB7023FC
:101BC000E26A5A400E3313402B601D4B23630323FC
:101BD000A364F8BD1B4A93421ED900231A4A1B4F27
:101BE0006262A362266BF307DCD5194B144AE31833
:101BF0001A60656AA36A0620AD01ED1800F01AF9B3
:101C0000144900F01DFBAD020100280000F018FB94
:101C10000021FFF74FFFC5E74006800E9F011A0025
:101C20003F180300B9E7C0460080FCBF08C0004071
:101C300000E0004000F0004080C600202C100000B2
:101C400001030000FEFF0000FFFF0000C0FF3F0097
:101C5000303000004E0E0000F8B5DE464E465746C6
:101C60004546E0B58B4605000A991800160000F0BD
:101C7000E7FA0A9B6C001F02324B64199C46A400D1
:101C80006444636881469F4200D967602B1FDBB2C2
:101C90009846012B30D9C02380229B01E318120102
:101CA0001A60294BAD0059599A4600291BD173017E
:101CB000E026226853401E40802342465B01E31821
:101CC0001E60012A30D9802380229B01E318120173
:101CD0001A6053464A4667605A51F0BCBB46B2464A
:101CE000A946A046F8BD586900F0AAFA01304300A1
:101CF0001B18033BFDD2DAE75B46012BCBD1C02397
:101D000003229B01E3181A60023AA3681A42FCD02E
:101D10007301E0262268AD0053401E4080230A4A2A
:101D20005B019246E3181E605A4621685140032227
:101D30000A401A6001225B469A40A3681A42FCD00E
:101D4000C1E7C046008000401C0B0020F0B54646AD
:101D50004F46D646C0B51F00344B44009C4624185D
:101D6000A4006444636888461600FF2B02D88023D1
:101D70005B006360031FDBB29A46012B30D9C0239E
:101D800080229B01E31812011A60294B85005959E2
:101D9000994600291BD17301E026226853401E405A
:101DA000802352465B01E3181E60012A30D980234C
:101DB00080229B01E31812011A6080235B0063609C
:101DC0004B465F51E0BCBA46B146A846F0BD5869E3
:101DD00000F036FA013043001B18033BFDD2DAE76E
:101DE0004346012BCBD1C02303229B01E3181A6089
:101DF000023AA3681A42FCD07301E02622688500EB
:101E000053401E4080230A4A5B019146E3181E603E
:101E100042462168514003220A401A60012342468B
:101E20009340A2681342FCD0C1E7C0460080004046
:101E30001C0B0020014B8000C05870471C0B002079
:101E4000F8B5040020481D0017000E0000F0F8F956
:101E50000100380000F0F4F9069B29041B03194324
:101E60002368002B1EDB194B194DE21853425A41CF
:101E700080235B019C461203164B62441A60164B8A
:101E80001A6017002B689F43FBD1144B2660E218A1
:101E90002123A06013602368002BFCDA0823E16093
:101EA0001360F8BD3F2322681340B342DBD1A3681F
:101EB0001B051B0D8342D6D1EE22E368D2021340EC
:101EC0008B42D0D1EDE7C046001BB7000040FDBFFC
:101ED00008C0004000E0004000F000400430000076
:101EE0008023024A9B000B43D36270470080054069
:101EF000142310B50100188804331B88984710BDBF
:101F0000162310B50100188802331B88984710BDAE
:101F1000F8B54746CE4680B50F1E19D01423994612
:101F2000043304000025012698464B461888434692
:101F300021681B88984701C4431E984101354042DF
:101F40000640AF42F1D13000C0BCB946B046F8BD42
:101F50000126F8E7AA23064A1B0113608D235B00C4
:101F6000D3600449044B19605368002BFCDA7047B6
:101F70000040024000B0FA00006002407047C046D6
:101F800010B50148FEF76CFDFC45011070B5074D1A
:101F9000074EB54209D20024013E761BB60808CD93
:101FA000984723000134B342F9D170BDB04301100A
:101FB000EC430110054B064A06491A60064A074BD6
:101FC0001A6010000B689843FBD1704700E0004096
:101FD000BFCDFBFE08C00040FE7F3C0000F000408B
:101FE000044BDB6C002B03D18022034BD2021A601E
:101FF0007047C046000011504C201150044A054B58
:102000001A60054A1368DB018033FBD17047C04674
:10201000FFFFFF0100F0004008C000404022034BDA
:102020009A675A671A67DA667047C04600F001403F
:1020300010B5FEF7DBFD10BDF8B52B492B4C2C4D30
:10204000641AA6103200302E00D9302228009200E7
:1020500000F0C4FCBC2C3ED8731C18000127254A94
:10206000302B3BD92F212C196407E40F891B05293C
:1020700017D9302B15D8002C33D0B300EA503F1BB2
:1020800033199B007908EB18C900C9181A605A6007
:1020900008338B42FAD101233B421CD09F433E18A8
:1020A000731CB1006A50302B15D09B00EA50B31C52
:1020B0002E2E10D09B00EA50F31C2D2E0BD09B002F
:1020C000EA50331D2C2E06D09B00EA50731D2B2E98
:1020D00001D09B00EA50084B9D60F8BD2F37BF1B15
:1020E000C0E73000CBE7C04600010010C00100107F
:1020F00000000020C101001000ED00E0002310B539
:10210000294C82B0A367FFF725FF0122274B1A60F5
:10211000636C012BFCD10322254B1A60224A936B7E
:10212000012BFCD1013300930121224A22480433C0
:10213000FFF786FE052301210093204A2048FFF780
:102140007FFE0022022104201E4BFFF7FFFD00222C
:10215000012105201C4BFFF7F9FD0022002107207B
:102160001A4BFFF7F3FD002200210820174BFFF761
:10217000EDFD8023DB000093002200210920134B9A
:10218000FFF76AFD0022104B00210620FFF7DEFD5D
:102190000420FFF74FFE0E4900F052F80100002026
:1021A000FFF79EFE02B010BD008000403CB0004032
:1021B00030B00040002F685900800240008C8647F4
:1021C00000C00240001BB70040597307006CDC02DE
:1021D00040420F0001480421014B184740050020F0
:1021E000111F0010014B9B6818470000400500209C
:1021F000124A936F9B0815D29066D166002905D0CC
:10220000FFE7FFE7FFE7516F106F704704B58021CC
:102210000906C2175140002800D0C84312F0A0F8A8
:10222000002104BDF0B5146E556E576F166FFFF7A1
:10223000E3FF1466556657671667F0BD000000D0CF
:10224000114A936F9B0813D210665166002905D07E
:10225000FFE7FFE7FFE7516F106F704704B50028F5
:1022600001D00020C04312F07BF8002104BDC0461D
:10227000F0B5146E556E576F166FFFF7E5FF1466D5
:10228000556657671667F0BD000000D094464A4A6D
:10229000926F9208624601D228E0C046F0B5464EE1
:1022A000346E756E776F366F00F020F89446424AB0
:1022B00014665566576716676246F0BD94463E4AF7
:1022C000926F9208624601D254E0C046F0B53A4E91
:1022D000346E756E776F366F00F04CF89446364A60
:1022E00014665566576716676246F0BD002B24DBFF
:1022F00011D000293EDA00B5C943404200D1013176
:1023000000F038F8C943404200D10131DB4352426A
:1023100000D1013300BD002AEBD1002801D10029F2
:1023200005D00020C90FC90701D1C043410800B53D
:1023300012F006F80022002300BD00B500290ADBD8
:10234000DB43524200D1013300F014F8C94340424C
:1023500000D1013100BDC943404200D10131DB430E
:10236000524200D1013300F005F8DB43524200D164
:10237000013300BD002923D1002B18D1002A0CD035
:10238000BC460D4F38667A6600210023FFE7FFE761
:10239000FFE77A6F386F67467047002801D007481B
:1023A000010000B511F0CCFF0022002300BD0200A7
:1023B0000B00002000217047000000D0FFFFFFFF4E
:1023C000002B00D0BFE0130C28D1002AE7D080B446
:1023D000114F39667A66FFE7FFE730B4040C7B6F74
:1023E000396F1B0423433B667A66FFE7FFE7FFE78D
:1023F000C04684B27B6F3D6F1B0423433B667A6605
:10240000FFE7FFE7C04600232C042D0C7A6F386FDE
:1024100000196941B0BC7047000000D0F0B5944687
:102420000025140E01D112020835140F01D112013A
:102430000435940F01D192000235D40F01D152001E
:102440000135D40B0134254F7C66254C3C660E0CBF
:1024500093B2FFE7FFE7FFE73C6F6643360C770375
:10246000BE467343DF0B5B04C01AB941130C7343C0
:10247000DB18C91ACE086643360CB64493B27343D0
:102480001F0F1B01C01AB941130C73431F0B1B050F
:10249000C01AB941860D8F023E436643360C092DA2
:1024A00024DB520A7243801A7703460A6643360CCD
:1024B00016235B1BDE40DF40BF1964466643821B68
:1024C0007046043506330100D940A840C01900D336
:1024D0000131A24206D20023F0BD0000000000D06E
:1024E000FFFFFFFF121B0130F3D3F1E709277F1B2A
:1024F000FE406446A2B27243801A00D20139220C17
:102500007243130C1204821A99410B007046043571
:1025100013370100F940A840801900D30131002B86
:1025200002D1A2420AD2F0BD013000D30131121B08
:10253000FAD2013BF8D1A24200D2F0BD013000D363
:102540000131121BF7E7F0B51C0C00D080E00CB491
:1025500000251C0A04D11B02160E33431202083553
:102560001C0B04D11B01160F3343120104359C0BC5
:1025700004D19B00960F334392000235DC0B02D14D
:1025800092185B4101351C00971864410134464F95
:102590007C66464C3C660E0CFFE7FFE7FFE7C04653
:1025A0003C6F6643360C7703BE4697B27743C01B39
:1025B00000D20139C01B00D201399FB27743C91B39
:1025C000C91B170C77437E04FF0B801BB941CE0853
:1025D0006643360C0C2D33DBB644120B1F053A4311
:1025E0001B0B97B27743C01B00D201399FB27743D0
:1025F000C91B170C77433E043F0C801BB941860D65
:102600008F023E43664329277F1BFE400C3D7746E1
:10261000AF40BF1930BCA2B2ABB272437343801A51
:102620009941220C7243130C1204801A9941020042
:102630000B000137001BA941F9D2781E0021F0BD23
:102640000C277F1BFE4077467F0BAF40FF19E0E76A
:1026500000245D1C07D0144F7D663966FFE7FFE755
:10266000FFE7FFE73C6F95B29EB265436643401BB0
:10267000B141150C1E0C6543664336042F0C3E43D6
:102680002D04401BB141994204D202000B002000EE
:102690000021F0BD01D19042F7D3801A9941013455
:1026A0009942F2D3F6E70000000000D0FFFFFFFFE1
:1026B00048404140484018B4134B5B68019308BD43
:1026C00018B4114B1B68019308BD94460F4A926FD2
:1026D000920805D2624618B40B4BDB68019308BD23
:1026E0000A4AF0B5146E556E576F166F6246FFF7C3
:1026F000F2FF064A1466556657671667F0BD18B4B0
:10270000014B9B68019308BDC0070020000000D06A
:10271000FFB550404240504059404B40594000E0C6
:10272000FFB5154F4C00640D03D0BC4204D10C031F
:1027300014D80020090D09055C00640D03D0BC42CB
:1027400004D11C030AD800221B0D1B0501264B4097
:1027500009D44B4003D58B4200D18242FFBD994240
:10276000FCD19042FFBD0B43DB1803431343F5D06C
:10277000C9434918FFBD0000FF07000000B5FFF77F
:10278000CFFF804100BDC04600B5FFF7C1FF01D9B2
:10279000002000BD012000BD00B5FFF7B9FF80415A
:1027A00000BD012040054A00121804D85A00121832
:1027B00001D8002070470120704700000021002848
:1027C00005D17047C1174840401AFAD0C90713B560
:1027D000064B1B6898470CBC441CA2401005120B0A
:1027E0000349091B09051943114310BD54C50020B5
:1027F0001F04000010B54C00620D8023D218DB00CE
:10280000D21A5B057E2A10DD9E3A13DACC17090333
:10281000490819435242D140640001341532202A3C
:1028200005DAD0400843604310BD002010BD0846C3
:10283000604310BDC80FC018013810BD18B4024B5A
:102840005B6A019308BD0000C007002010B5014875
:10285000FEF706F908460110132370B51D78012D07
:1028600019D014DD1D48FFF74BFB06001C48FFF78D
:1028700047FB1C4C80223100200000F0AFF8022DF5
:1028800006D01948FFF734FB184B186070BD154C83
:10289000174BA364F5E7174B124C23606360A360EA
:1028A000E36023616361A361E36123626362A36206
:1028B000E36223636363A363E36323646364A364E6
:1028C000E36423656365A365E36523666366A366C6
:1028D000E36623676367A367E367D9E753440000B0
:1028E00053460000C00700204C33000054C50020B0
:1028F000F92800104D28001007B5604601880A0A23
:102900000230DF2AFAD1C9B2820804D30288408893
:102910000004104300E00068014A5050039007BDD6
:10292000C007002051434343C9188C46110C83B2A1
:102930004B4310B4040C614392B280B250436243E3
:102940001C041B0C001910BC59411304120CC018B4
:10295000514161447047000010B50148FEF780F80E
:10296000C4610110132310B510481C78FFF7C8FA92
:102970000100012C0AD003DD80220D4800F02EF862
:102980000C48FFF7B5FA0C4B186010BD084C5422E8
:10299000200000F023F82200084980322368002B31
:1029A00000D1216004349442F8D1E9E75346000095
:1029B00058C500204C33000054C500205929001090
:1029C00001480421014B184750050020111F001039
:1029D000014B1B681847000050050020014B5B6845
:1029E00018470000500500209A4200D288547047D2
:1029F0007047C046F8B557464546DE464E46E0B5F8
:102A000098460A9B06009A460D9B0F0093461500B8
:102A10009B0710D10B9B0C9A93420CD213005C467F
:102A20000B9A9D1A5D442200434601343900202050
:102A3000B047A542F7D10B9C6319002C09D01D00AB
:102A400053462A1B013C185D39004346B047002C11
:102A5000F6D10D9B9B070ED55B46EC1A0C9BA3424F
:102A600009D999462A004346390020200134B0474D
:102A70000135A145F6D82800F0BCBB46B246A946B0
:102A8000A046F8BDF0B54F464646D646C0B584B020
:102A900098460EAB1B7894469946129B0D9C109F4E
:102AA000119E9A0724D4002E6AD1BC4220D2012262
:102AB0001A409246202C00D1CBE00C9A551E3022B1
:102AC00001E0202C30D001342A55A742F9D85246D3
:102AD000002A0DD0B4420BD20C9A551E3022202C65
:102AE00002D126E0202C61D001342A55B442F9D11C
:102AF000DA0634D55A0562D4002C5CD10F9A102A1C
:102B000000D191E0022A00D1A1E030220C9C227079
:102B100001244A46002A5CD15A0700D47DE02B22CA
:102B20000C9D2A5501341CE05246002A02D0202E6A
:102B30003CD92024DA0614D55A0512D4202F00D10E
:102B400097E0202E3BD120261F2234000F9D102D10
:102B500000D181E0022D4CD030250C9FBD54202C9B
:102B6000D7D103930C9B624600930296434601948F
:102B7000FFF740FF04B0E0BCBA46B146A846F0BD3E
:102B8000012215001D40AA461A4227D04A46002AB3
:102B900033D10C321A4230D1BC429BD2202C00D00F
:102BA0008BE7202EC5D8DA06A4D4DAE72024DA068B
:102BB000D7D55A0503D4A74221D0B4421FD00F9ACB
:102BC000102A21D0022A10D0202CCAD02200013491
:102BD000C2E72D220C9D2A550134C2E7BC4200D326
:102BE00086E7202C00D068E7E1E7202CB9D022004E
:102BF000013462250C9FBD54E6E7013ECCE7621E1E
:102C0000012C00D17AE7A1E79A0616D4202CA8D08F
:102C100078220C9D2A550134D6E71A07A1D5202227
:102C20000C9D2A5501349CE79A060ED478220C9C00
:102C300022703022627002246BE7202C91D058253C
:102C40000C9A121915700134BEE75822EFE7622280
:102C5000EDE7002AA7D1AAE7023C9D0604D4782517
:102C60000C9F3D551400B1E758250C9F3D551400AD
:102C7000ACE71F226AE7C04610B5002800D110BD9E
:102C800001F038FBFBE7C0460B0010B5002802D06E
:102C900049681B68984710BDF0B557464E464546F3
:102CA000DE46E0B599B08246894690460993229A5D
:102CB000239B10001900FFF774FD002800D0C8E026
:102CC000229823990122D54B5242FFF765FD002837
:102CD00000D0BEE0229823990122D14B5242FFF747
:102CE0004DFD002800D0B4E0229823990022002353
:102CF000FFF744FD002800D0E9E1229E239F8023B6
:102D0000269ADB001A400D92269A1A4201D1062318
:102D100024933B00334300D0B4E0269B1B0500D531
:102D2000BFE1002300240A930B94002304250C9395
:102D3000259B0024AB4200D95C1B0223269A1A4033
:102D40000D92269A134203D06B426B415B421C40AA
:102D50000C9B002B07D00A9A0B9B30003900FFF721
:102D6000B4FC06000F002298239900220023FFF7ED
:102D700005FD002803D0802109067B181F00269A34
:102D8000A84B009601971340099E0493249B03943B
:102D90000293424633004946504600F0A7F904002A
:102DA000002D67D02020269A4946024013005A423F
:102DB00053415B42621C18400A92330022004530A6
:102DC000D0470C9A6F1ED317D4185C40D30F9B4684
:102DD000002501E0202D13D008AA94461F232000CF
:102DE00063440A2101355E19FFF72AFA3031317048
:102DF00020000A21FFF724FA26000400092EE9D852
:102E000005230693002304930A3303935B46099E2C
:102E1000029310AB0A9A0093494633005046059737
:102E20000195FFF72FFE0D9A0400002A22D042469A
:102E3000851A259AAA421DD9B04657461600220087
:102E40004346494620200135B8470134AE42F6D802
:102E500010E0269B42460493259B49460393249BFE
:102E600050460293229B239C00930194099B00F0FF
:102E70003DF90400200019B0F0BCBB46B246A9469B
:102E8000A046F0BD684B78009C46400D6044FFF7BB
:102E900099FC664A664BFFF732FC664A664BFFF7C1
:102EA0000FFC664A3B031B0B1A4304000D00644BE6
:102EB000110030000022FFF7FEFB624A624BFFF771
:102EC0001EFC02000B0020002900FFF7F9FBFFF7B2
:102ED00091FC0C90FFF776FC5C4A5D4B04000D0002
:102EE000FFF70DFC00225B4BFFF7EAFBFFF782FCCC
:102EF000594A8346594B20002900FFF700FC040083
:102F000058460D00FFF75EFC554A564BFFF7F7FB9E
:102F100002000B0020002900FFF7CDFB02000B0090
:102F20000A900B91FFF7EBFB04000D000A980B9938
:102F300002000B00FFF7C4FB00220E900F914A4BDA
:102F400020002900FFF7C1FB0022484BFFF7B8FB28
:102F500002000B0020002900FFF7B7FB0022444BC2
:102F6000FFF7AEFB02000B0020002900FFF7ADFBCE
:102F70000A9A0B9B0D0080210400C9050020FFF771
:102F80009AFB02000B0020002900FFF799FB394C47
:102F900002000B000E980F99FFF797FB5C4400228C
:102FA000264BFFF78DFB23050022FFF7A8FB04004B
:102FB0000D0002000B00300039000A940B95FFF75A
:102FC000DDFB00285ED123002A00C6250C99633161
:102FD0008D42AD4126996D420435090500D4A7E61E
:102FE000134364D030003900234A244BFFF7CCFB55
:102FF000002807D0002230003900214BFFF7BEFB2C
:10300000002854D1249B002B00D191E60D9B5A1E21
:103010009341249AD31A24938AE6C046FFFFEF7F98
:10302000FFFFEFFFFFF7FFFF01FCFFFFFB799F5062
:103030001344D33FB3C8608B288AC63F0000F03FDB
:103040000000F83F61436F63A787D23F71A37909FE
:103050004F930A400000E03F1655B5BBB16B0240EC
:10306000EF39FAFE422EE63F00002C4000002440DB
:1030700000001840FF0300002D431CEBE2361A3F0E
:1030800080842E410C9B0022013B0C932000164BA8
:103090002900FFF71AFB0A00010003000A910B92B6
:1030A00093E7002300240A930B9400230C93249AA3
:1030B0000C9B9A4214DDD31A013B24938023269A59
:1030C000DB001A430023002526920C9330E6802271
:1030D00012069446229B1E00239B63441F000EE6AB
:1030E00000232493EAE7C04600002440F0B545469B
:1030F000DE464E465746E0B595B08B46904699461B
:103100001E9A1F9B0A9019001000209DFFF749FB93
:10311000002800D0B0E11E981F990122C74B5242EF
:10312000FFF72CFB002800D037E11E981F990122E1
:10313000C34B5242FFF730FB002800D0A7E01E9897
:103140001F990022BF4BFFF727FB002800D088E023
:103150001E981F990022BC4BFFF710FB002800D0DF
:103160007FE01E981F9900220023FFF707FB00282D
:1031700000D0FAE000230B938023229C229ADB00EC
:103180001C401A4200D102E1092D00D87EE106A9B7
:103190008C462C00172200233021093C6244013365
:1031A000D154EF1A202B00D132E1A342F7D10022F3
:1031B000A44B069207931E981F99FFF71BFB05006F
:1031C000FFF700FB02000B001E981F99FFF773FA30
:1031D000069A079BFFF793FA08900991FFF72EFBD9
:1031E0000600FFF7EBFA02000B0008980999FFF7B9
:1031F00062FA0022954B08900991FFF7CDFA00285A
:1032000000D1D2E001363000FFF7D8FA069A079BCA
:10321000FFF7BAFA002801D000260135AA46002F90
:1032200000D098E02800FFF7CDFA02000B001E98AE
:103230001F99FFF740FA854B002206000F00FFF7A9
:103240009DFA0CAB9A46002845D100223000390087
:103250007E4BFFF7A1FA00283DD1EB073BD50135A6
:1032600039E0229B42460493219B594603930A98D6
:103270001E9B1F9C0295009301944B46FFF70CFD8B
:1032800015B0F0BCBB46B246A946A046F0BD229B95
:103290005B0767D403226E4B229901920391219917
:1032A0000291009342464B4659460A98FFF7A2FB0B
:1032B000E6E706AA94461723280063440A2101344E
:1032C0001E19FEF795FF3031280031700A21FEF7F4
:1032D0008FFF051E76D0202CEBD10323229A1340BA
:1032E000012B1DD1219B002B1AD00B9B002B00D052
:1032F000BBE0229A0C33134200D0B6E0219BA342DC
:1033000000D887E006AB9C4617223023624404E0D5
:103310002199013413558C4259D0202CF8D1202406
:10332000229B01940393219B02935346B9E706AA7B
:10333000944617230A216344300001341D19FEF717
:103340007FFF3031297030000A21013FFEF778FFFE
:10335000092E46D90600202CE9D155460CAB202475
:103360009A46B8E704223B4B96E71E9A1F9B002023
:103370000021FFF7A0F901230B938023229C229ABE
:10338000DB001E901F911C401A4200D0FCE6002278
:10339000314B0627069207930DE7229B0393219B4F
:1033A0000293042301932D4B7BE70022089809998F
:1033B000264BFFF7E3F9002800D02FE7002E4FD16E
:1033C00001362BE70323229A1340012B68D0202CCF
:1033D000A6D00B9B002B1FD02D2352461355013432
:1033E0009EE75546202CB9D030223B19002F4BD0F8
:1033F000172006A9013409180A55202CAED09C428A
:10340000F6D10CAA92462E2251465C1CCA5462E7A1
:103410002024CCE6202C83D0229B5B0708D4229B5F
:103420001B0700D47CE7202352461355013477E76D
:103430002B2352461355013472E7C046FFFFEFFFBE
:10344000FFFFEF7F65CDCD4165CDCDC10000E03FF1
:10345000BC460110B446011080842E41C4460110C0
:10346000F30700D4DAE60136D8E6219B013B21932D
:10347000A34200D946E7AAE7229B0393219B02932C
:1034800003230193084B0CE72300BAE7074BEA003C
:103490009B185C681B682F000693079400248AE63B
:1034A000219B002B93D020E7C046011068480110F3
:1034B000F0B5DE4657464E464546E0B59FB01C0087
:1034C000289B93460A93CC4ACC4B8A4609901A60B3
:1034D000002900D14DE1002320789946002800D131
:1034E0004FE1C74B4D460893C64B0D930AE02A00A7
:1034F0006E1C5B46099D5146A84735000134207873
:10350000002872D02528F2D110239946083B98460E
:10351000043B00219C46022701342078260003004A
:10352000203BDBB2102B03D8089A9B00D3589F4650
:103530000300303B092B6ED900272A2800D18AE0EE
:1035400000230B932E2800D176E00300683BDBB20A
:10355000122B1BD8AC4C9B00E3589F46012301342F
:103560001943DAE739430134D7E763460134194395
:10357000D3E74B4601341943CFE74346013419439F
:10358000CBE780235B0070781943013667280AD89F
:1035900024281FD90300253BDBB2422B1AD80D9AF1
:1035A0009B00D3589F460300693BDBB20F2B11D819
:1035B00001249C40954AA446904614400C946246CF
:1035C0004446224200D025E20A2B00D101E1072B1C
:1035D00000D1D8E0099C2A005B465146A04770788C
:1035E0006F1C741C3D0000288CD1A9462C00CB45D3
:1035F00003D801235B425B4499465B464A465146E9
:103600000020099DA84720001FB0F0BCBB46B24671
:10361000A946A046F0BD0027BB00DF1901367F0098
:103620003F183078303F0300303B092BF4D900239A
:103630000B932E2800D088E780237078DB00194395
:103640000300303B741C092B00D82CE12A2800D140
:1036500038E1260079E70A9B80CB002F03DB6078F6
:103660000A93661C6CE70222607811437F420A933A
:10367000661C65E7672800D1C8E1472800D104E24D
:10368000452800D104E207200A9B049107338343B5
:1036900019000B9A039702920CC9099800920193A2
:1036A0000A912A005B465146FFF7F6FA741C0500A2
:1036B00025E770786C2800D10DE280235B00194368
:1036C000013663E780239B007078194301365DE77C
:1036D0007078682800D1F9E180230136194355E755
:1036E000462800D18FE107200A9B049107338343CA
:1036F00019000B9A039702920CC909980092019342
:103700000A912A005B465146FFF7F0FC741C050045
:10371000F5E62A00099C5B46514625206F1CA04710
:103720003D00741CEBE6890700D4DEE10A9B2A0009
:1037300098466B1C9946434601CB51469846099CD6
:103740005B46C0B2A047ED19012F00D893E24C466A
:10375000B1465646099F22005B46013431002020C5
:10376000B847AC42F7D1B24643464E460A93741C62
:10377000C5E6274B2078099300239946002800D0FE
:10378000AFE6002433E70A9B1A0008CA9046002BD4
:1037900000D1A7E0212008430EA98C461F226244D5
:1037A0000F27AC46814615000C9C02E0202C0CD063
:1037B00013003800184001003731092800D80739B4
:1037C000013429551A090F2BF0D8654648460C9448
:1037D00094E00A9B1A0008CA12920B9A002A7BD125
:1037E00002241A786442002A1DD0013418199C461C
:1037F0001C00030010E0C046B13400106C1900201A
:10380000CC4601105C4701101047011041900000A8
:10381000F12900109C4203D0607801340028F9D1CE
:103820006346E01A0C908020C00084460840804621
:103830006046014204D00B980C9C844200D90C9045
:103840000220844608400A906046084200D189E17F
:10385000101E00D170E14246002A00D11BE10B9AF4
:103860005B1B9046A84444462A00B84699465746F2
:10387000B246099E09E05B463900551CB0474B46ED
:10388000585D002800D12CE12A009442F3D156461D
:103890002500BA4647460A9B002B00D04CE1129BFC
:1038A000741C0A932BE6002293009B185B000134E2
:1038B0001A182078303A0300303B092BF4D926003F
:1038C0000B9242E60A9B023604CBD043C01702405B
:1038D0000B9230780A9338E61A78002AA3D00B9816
:1038E000441E82E7102308008027984311331843B1
:1038F0000B00FF003B40394200D14DE70823059300
:103900000B9B2A00049310230393002302930C9B28
:103910000690019316AB009351465B460998FFF75A
:10392000B1F843460500741C0A93E8E5622800D10B
:10393000A6E1582800D1B1E180230A00DB001A403B
:103940009046194200D189E1112399438C46802386
:1039500062469B001A40100062461A4200D023E1E2
:10396000802364465B001C401A4200D032E263466A
:103970005B0600D56BE163460A991B0600D4DBE2C7
:1039800008C91BB2DA179818504080B20A91DA0FB2
:103990000C92002B00D118E280460EAA91461F23FC
:1039A0004B441395E14645461297B0461E0001E090
:1039B000202C0FD028000A21FEF742FC01343719D1
:1039C0003031397028000A21FEF73AFC2F0005003B
:1039D000092FEDD84646CC46129F139D63460693A9
:1039E0000B9B059704930A2303930C9B029316AB3E
:1039F0002A000194009351465B460998FFF742F86C
:103A0000741C05007BE5202319436CE680231B0111
:103A1000194338E6782800D07CE180230A00DB00D7
:103A20001A409146194200D1A5E20D23994308009E
:103A300003330C93802302009B001A4090461842E7
:103A400000D078E1802304005B001C40184200D0C5
:103A500007E2430600D453E2FF210A9B04CB0A404D
:103A600090460A934346002B00D026E1103398433A
:103A70004B46002B00D120E100240B9B06900493C1
:103A80000C9B059703930023B0E780231B01194388
:103A900020231943F7E55B1B99460C9B099C98462C
:103AA0005B46B3465646BA461F002A003B0031002B
:103AB000A0474B460135585D0028F6D143460C938C
:103AC0003B005746B2465E469B46E4E6C023B078CC
:103AD000194302365AE5C0239B00B07819430236D9
:103AE00054E55646BA464746D5E6012F00D832E29D
:103AF0006B1E9846B8442C00A9464546B846574622
:103B0000B246099E22005B46013439002020B047AE
:103B1000AC42F7D10A9B564601CBBA464746984677
:103B200022005B46099C5146C0B2A0474D46434621
:103B3000ED190A93741CE2E40C9BA8469F4200D83E
:103B4000ADE64446B04656467D19099FED1A22005F
:103B50005B46013431002020B847AC42F7D1B24671
:103B600046469CE60C98874200D8F0E142469846CB
:103B70007919B9465746B246099E0C1A0C922A008A
:103B80005B46013539002020B047A542F7D15646A3
:103B9000BA464F4643460C9A90467A1C0C921A78C5
:103BA000101E00D057E67AE60822072191460A9BAC
:103BB00007338B4399444A460ACB0C000A921C43B4
:103BC000DA0F002C4ED0D817040010904C40119002
:103BD0000E94109811990C005C400F940E9B0F9C52
:103BE0001B1A8C410E930F940EA988461F230024A4
:103BF00043441297B046270013951E000E9C0F9D5C
:103C0000E1460C9201E0202F10D0200029000A226A
:103C10000023FEF753FB013730322B00F2550D0025
:103C200022000400002BEED1092AECD84646CC46EF
:103C30000E940F950C9A3C00139D129F63460693B9
:103C40000B9B059704930A2302920393CFE6FF236D
:103C50000A9904C9134018000A9198E61023994361
:103C60008C4674E643460024002BE7D10023002451
:103C70000E930F94B8E743464D460A93741C3EE4F6
:103C800080230A00DB001A409146194200D140E12E
:103C90000D2399430B3B08000C93CBE680230A00CD
:103CA000DB001A409146194200D162E10D23202029
:103CB0009943033308430C93BCE66123810600D586
:103CC00041230EA91F228C46DBB262440A3B1397A4
:103CD0001495814645460C9FB0461293160008E0A5
:103CE0003033DBB201343355BD420ED3202C0CD01F
:103CF000050039002800FEF7A3FACBB20929EFD955
:103D0000129A94466344DBB2ECE746464846139F5A
:103D1000149DB2E66F2800D03CE10C2308009843C4
:103D200080230A00DB001A409146194200D02AE1A4
:103D300008230C937EE60A99FA3BFF3B073199432F
:103D400001339C468C4463464A680A930B6890464C
:103D50009C461343191E06D14B461031002488435C
:103D6000002B00D089E66121830600D541210EAAEF
:103D700091461F234B449946C9B20C9B0A391397AD
:103D80001495159645464E4600246746984681464A
:103D900012910CE03032D2B2002301343255AB42E2
:103DA00000D1BCE0202C00D1BCE007000D00424651
:103DB000002338002900FEF781FAD2B2092AE9D996
:103DC000129B9C466244D2B2E6E74346002B00D0E9
:103DD00004E6E2E50A9C08CCDA0F1392002B00D12E
:103DE000A5E0D9175B184B4098460EAA91461F23B1
:103DF0004B440C95A14645461296E04606001C0031
:103E00000A9701E0202E0FD028000A21FEF718FAA9
:103E10000136A7193031397028000A21FEF710FA4F
:103E20002F000500092FEDD8C4464C4630000A9FEC
:103E30000C9D129E634606930B9B2A0004930A2353
:103E40000393139B0190029316AB009351465B467C
:103E500009980597FEF716FE0A940500741CFFF7F3
:103E60004EFB0A9B10CB1493002C04D110239843D3
:103E70004B46002B2CD16123810600D541230EA98E
:103E80001F228C46DBB262440A3B1297139581468F
:103E900045460C9FB0460A93160008E03033DBB26B
:103EA00001357355BC420ED3202D0CD004003900CF
:103EB0002000FEF7C5F9CBB20929EFD90A9A94463A
:103EC0006344DBB2ECE748464646129FA846139D82
:103ED0000B9B2A0004930C9B0690039300230293F0
:103EE0004346019316AB009351465B4609980597EC
:103EF000FEF7C8FD149B05000A93741CFFF7FFFA38
:103F000003061FD50A9B02CB09040A0C90460A93AC
:103F1000A8E50C2399430A3B08000C938AE5B845B1
:103F200000D83FE74846139F149D159EA5E54346DC
:103F3000002B00D07EE758E708C9DA1798185040E0
:103F40000A9124E50A9B04CB90460A938AE5010076
:103F500001310C9124E60A9F6C1C01CF2A005B46BC
:103F6000099D5146C0B2A84725000A97741CFFF767
:103F7000C6FA202319430C23994300239946103392
:103F800008000C9356E508238C460C930D236046DD
:103F900098434FE510230A009A439446692808D1B4
:103FA00080230A00DB001A409046194200D1CEE47B
:103FB000CAE41C230800984380230A00DB001A404F
:103FC0009146194202D10A230C9333E50A230C933C
:103FD000DCE7C0460EB4012230B584B007AC08CC93
:103FE000064D01000094280052420394FFF760FA46
:103FF00004B030BC08BC03B01847C046E929001023
:1040000000B585B00391012102900093034813008D
:104010004A4202A9FFF74CFA05B000BD892C0010F6
:1040200010B5094A0300146884B0002C08D001229E
:1040300000910648524203A9A047012004B010BDD8
:1040400000F0A4F90020F9E76C190020792C001089
:1040500000BEFDE710B5FFF7FBFFC04670B5FDF7EA
:1040600095FF074D074EB54209D20024013E761B4D
:10407000B60808CD984723000134B342F9D170BD8A
:10408000EC430110F4430110030010B508001100C7
:104090001B68984710BDC046F0B546464F46D64609
:1040A000C0B5437D80460E001700002B4BD0002A80
:1040B00032DD274B01259A464B1E002400209946ED
:1040C00007E0335D0A2B2CD02B0001340135BB42B5
:1040D00013DA002CF5D133780A2BF5D143461B7D3A
:1040E000002BF1D14346504602211B689847280017
:1040F0002B0001340135BB42EBDB874204DD434634
:10410000391A1B6830189847F619013E33780D3B71
:104110005A42534142461375E0BCBA46B146A846DE
:10412000F0BD4B461B5D0D2BCED0A042DADA4346E4
:10413000211A1B68301898474346504602211B68D5
:1041400098472800D4E70368110030009847E3E758
:10415000B8480110F0B5C6460B6806000C0000B563
:10416000802B06D05A1C2260E418267180BCB84609
:10417000F0BD0F4B1D68002D16D00B1D98460D4F3E
:1041800002E02D69002D0FD02B68002BF9D03B6881
:10419000002B01D0AB42F4D1280041462268FFF742
:1041A0007BFF2D69002DEFD101220023DBE7C04604
:1041B000381900203C190020F0B5DE4657464E461F
:1041C0004546E0B585B017001C0006000D00FDF760
:1041D00067FC0023314A12184B41802109068B42AB
:1041E00002D301222E4B52422E4908008A4610F07B
:1041F000C7F801906B1C03D130000FF091FD050052
:10420000002C26D0284B9846284B1C68002C15D033
:10421000002F21D1264F02E02469002C0ED0236804
:10422000002BF9D03B68002B01D0A342F4D1200031
:104230002A003100C0472469002CF0D1019B002BDB
:1042400028D1280005B0F0BCBB46B246A946A0461E
:10425000F0BD184B9846D7E7154B994602ABDF1DCA
:104260000A239B4602E02469002CE7D02368002B38
:10427000F9D04B461B68002B01D0A342F3D12A0092
:1042800031002000C0475B460122390020003B700E
:10429000C047E8E7504610F04BF8D2E740420F0025
:1042A000FFFFFF7FE805002099400010381900202B
:1042B0003C190020894000100A4A1368002B05D1E0
:1042C0000CE01A001B691032002B07D09842F8D17D
:1042D000002902D103691360016170470029FCD0F5
:1042E0001060FAE73819002010B500F0B7F9012086
:1042F00010BDC046F0B5CE46474680B583B06B468C
:104300000600DD1D2870FDF7CBFB00231A4A1218AA
:104310004B41802109068B4202D30122174B5242A6
:1043200017490800884610F02BF8164B81461C6888
:10433000002C14D0144F02E02469002C0FD0236805
:10434000002BF9D03B68002B01D0A342F4D1200010
:1043500001222900FFF7A0FE2469002CEFD14B4673
:10436000002B05D1300003B0C0BCB946B046F0BD4B
:1043700040460FF0DDFFF5E740420F00FFFFFF7FF3
:10438000E8050020381900203C19002070B5040011
:104390000FF0C6FC01230100050001222000FFF7F9
:1043A0000BFF084B1C68002C06D06368002B05D05F
:1043B00098472469002CF8D1280070BD2469002C8E
:1043C000F3D1F9E738190020F0B5CE46474680B55D
:1043D000A3B004000D00FDF763FB0023294A121867
:1043E0004B41802109068B4202D30122264B5242C7
:1043F000264F38000FF0C4FF00230600019322006F
:104400002B00234801A9FFF7FBFD019B8046002BF1
:1044100014D1204B1C68002C06D06368002B0BD0F5
:1044200098472469002CF8D1002E25D1404623B0AE
:10443000C0BCB946B046F0BD2469ECE7154B1D6819
:104440009946002D1CD0144C02E02D69002D0FD090
:104450002B68002BF9D02368002B01D0AB42F4D19C
:104460002800019A02A9FFF717FE2D69002DEFD150
:104470004B4601951C68CEE738000FF059FFD5E791
:104480000195D1E740420F00FFFFFF7FE8050020C4
:1044900055410010381900203C1900200FB400B518
:1044A00083B004A901C90191FFF78EFF03B008BCD6
:1044B00004B01847F0B5002915DD0E4B0D271A681A
:1044C0000D4B0E4CD3185D426B41451820215B000B
:1044D0001E5F0478A64207D093691942FCD10130CF
:1044E0001460A842F5D1F0BD93691942FCD1176060
:1044F000F2E7C04684C600200080FCBF80C60020D2
:1045000030B504000D1E2EDD002010211F4B013C94
:104510001A689369194216D1013093691942FCD186
:10452000136823548542F4D1194B1B68002B08D023
:1045300050239363516B183B0B4016498C466244E1
:10454000136028000EE0124B1B68002B08D050238C
:104550009363516B183B0B400E498C4662441360C9
:1045600000280FD030BD0A4B1B68002B0AD0502208
:10457000064B1B689A63596B183A0A4005498C46EA
:1045800063441A6003204042ECE7C04684C6002022
:104590000C0B002034100000064B10B51B68002BDC
:1045A00006D00021044A12689163044A10689847B3
:1045B00010BDC0460C0B002084C60020100B00204C
:1045C0000822034B19688B691A42FCD17047C04618
:1045D00084C6002070B51B4E1B4B32680500D318F3
:1045E0005842434114331C00002D04D0174B1A6865
:1045F000002A11D070BD154E3368002BFAD000216F
:1046000020009563FCF712FB20001149FCF74CFCDD
:10461000104B35601D60EDE71D600E4B20001960EA
:104620000B49FCF71DFB01212000FCF7FFFA50228B
:1046300033689A63596B183A0A4007498C466344B9
:104640001A60D7E784C600200080FCBF0C0B002056
:1046500099450010100B0020341000000D4B10B5D0
:104660001B780D4B0D4C1B780D4B02211B780D4B0D
:1046700000202360FCF734F902210120FCF730F917
:10468000E12120684902FDF759FA01210648FFF7A8
:1046900013FE10BD98DB041094DB041084C60020C8
:1046A00090DB0410004003406005002010B506F0C8
:1046B000F7FD10BDF8B501230B72040006F024FECF
:1046C0000500431C0BD1104B186859680F4B22682A
:1046D0009860D9601900200052699047F8BDFDF735
:1046E000DFF9FA2206000F000023280000219200C3
:1046F000FEF718F98023801979411B069942E5D30A
:10470000012003494042E1E7D0450110780500202F
:10471000FFFFFF7F70B5094D04002B78002B08D0F8
:104720000123074920000B722368DB6998470120A9
:1047300070BD00F0EFFB01232B70F1E7A1C6002054
:104740009005002010B50400036804499B69984750
:104750002368200002491B6A984710BD7805002095
:1047600090050020002070477047C04610B5FDF747
:1047700097F9002905D0FA2200239200FDF79EFD4B
:1047800010BDFA218900FDF75BFDF9E78368083069
:10479000002B04D107E018001B68002B03D09942BE
:1047A000F9D1002003E00023016001200B60704775
:1047B0008368002B08D0994202D107E0994206D0C5
:1047C00018001B68002BF9D10020704708300B68D7
:1047D00003600120F9E7C04643680430002B04D190
:1047E00007E018001B68002B03D09942F9D1002084
:1047F00003E00023016001200B6070474368002B39
:1048000008D0994202D107E0994206D018001B68EF
:10481000002BF9D10020704704300B6803600120A1
:10482000F9E7C046F0B54646D6464F46836880460F
:10483000C0B5002B2CD0082343449946FDF730F92E
:1048400043469B6804000D009C46002B20D01E00B0
:1048500000234F469A46B268F36820002900801A68
:104860009941002902DB14001D00BA463700366862
:10487000002EF0D15346002B48D0524619684046CE
:104880000B6813604B68984743469B68002BD5D153
:1048900043465C68002C35D00025237A002B28D0B5
:1048A000210063682572404698472468002CF4D1A3
:1048B00043469B689C46194B186859686346002B11
:1048C0000FD063461A689C68DD6894460B000200AE
:1048D000121BAB41002B10DD634620002900002B8A
:1048E000EFD1434618615961E0BCBA46B146A846CB
:1048F000F0BD2468002CD0D1DAE7002BDED1002AED
:10490000EAD1DBE7054B18685968EAE743465C687B
:10491000002CC1D1014B18685968D2E7D04501106D
:1049200070B50F4C0F4D104A24184D41A900A00F2F
:104930000843A90F69400D4B6040FDF7F3FF4A01A2
:10494000C30E1343CA0E58405140094B094AFDF7A4
:10495000E9FF4A00C30F1343CA0F5840514070BDCE
:10496000157C4A7FB979379EB9E5E41C6D4758BF7D
:10497000BB49D094EB113113F0B5046845680600CB
:1049800023002A00C6468068F16803430A4300B545
:10499000134304D1FDF784F803000B43FAD02A0631
:1049A000230A6040270613432A0A3A43070CBC46F1
:1049B00069404B40984663460F041F43424003043E
:1049C0005A4043467B4032607360C20E4B01134332
:1049D000C90E40010843B360A10FAB000B43A20016
:1049E00012196B41F060D901500E0843D201590EE3
:1049F00011430C0005004B0FC1001943E0000019E2
:104A0000694180BCB846F0BDF0B5DE4657464E461B
:104A10004546E0B5BC4991B008910978002900D11C
:104A2000E5E00CAB9846B94BB94C0293B94BBA4E82
:104A30000593102205994046FDF7D0FFB74B06932A
:104A40001B78DBB20793FDF72BF8FFF769FF0C9B90
:104A50004340089343465B684B400993B04B9B69C6
:104A6000DB0433D5AF4BDA6BE0231340402B2DD062
:104A7000EFF305839A46AC4B2768994600239B4683
:104A80003300564665689A4638002900002E1AD031
:104A9000FDF744F8EFF3108272B64B461B68002B0B
:104AA000FBD0BFF35F8F2368BB4212D0BFF35F8F91
:104AB0004B465946196082F31088276865683800AC
:104AC0002900002EE4D1FCF7BFFEE3E7FDF758FA1A
:104AD000CEE76368AB42E9D1914B1500DF69FCF783
:104AE000DFFF0A220023801859410B00802156461F
:104AF000020009068B4202D301228C4B5242012054
:104B00000CC43268736892185B413840104300242B
:104B10000092019330607360BFF35F8F824A14602C
:104B200085F310880199FFF7FBFE43469B684246D8
:104B300058404346DB6890604B40D3607C4A029B00
:104B400094461B787B4ADB006344986890424CD0C3
:104B50000021FFF7E5FE089B43400C93099B4B4067
:104B6000190043465960EFF3108572B66E4A136818
:104B7000002BFCD0BFF35F8F069B079A1B789342F4
:104B800014D005980C9A036841685A4043465B6804
:104B90000C9242464B40536092688368C1685A4009
:104BA0004346DB684B4041468A60CB604046FFF796
:104BB000E3FE102206000C0005984146FDF70EFFAB
:104BC000069A13780133DBB21370BFF35F8F0022B4
:104BD000554B1A6085F310883000210011B0F0BCED
:104BE000BB46B246A946A046F0BD9C60B0E7524D18
:104BF000524CAC4620686168514DA246A8460092CE
:104C00000193850D8F0286022F4334003D00241846
:104C10004D41A30E9946AB0101934B46019A1A43AD
:104C2000A30100930192009C019D241A8D41200054
:104C3000644608CC290002930023A4460393029CF7
:104C4000039D00196941C445DBD154462060616071
:104C5000FFF766FE0CAB98460C9B4340029343461D
:104C60005B680AA84B40059300F02CF90A980B9951
:104C7000FFF756FE43469B68434006934346DB6876
:104C80004B400793264B9B69DB0400D4F4E0254B93
:104C9000DA6BE0231340402B00D1EDE0EFF3058306
:104CA00000249A4600234025009301941E4B2E00B9
:104CB00099465546C346164C0023B04627682E0039
:104CC00065689A4638002900002E1AD0FCF726FFA6
:104CD000EFF3108272B64B461B68002BFBD0BFF37C
:104CE0005F8F2368BB422DD0BFF35F8F4B46514689
:104CF000196082F310882768656838002900002E43
:104D0000E4D1FCF7A1FDE3E7A8C600209FC6002080
:104D1000B8070020D0000020C0000020A0C600205E
:104D20000000064000800040300100D0FFFFFF7F00
:104D300000000340FFFFFF00001C0420C80000200B
:104D4000002004206368AB42CED135004646904631
:104D5000009A019B10001900801859414B4BDA69E9
:104D600001231340034300930191FCF799FE0A22AB
:104D70000023801859410B008021020009068B4254
:104D800002D30122424B524222606360012E5ED167
:104D90000098019935003F4E474630607160D84613
:104DA000BFF35F8F3C4B994600234A46136087F35D
:104DB0001088FFF7B5FD029B43400C93059B4B40C9
:104DC00019005B465960FCF76BFEFFF7A9FD069BD7
:104DD000434018005B469860079B4B4019005B46B8
:104DE000D960EFF3108772B64B461B68002BFBD0DF
:104DF000BFF35F8F089B1B78002B31D1274BDA68FC
:104E00001F2A3CD05A691F2A3AD0DA691F2A39D0A2
:104E10005B6A03251F2B33D0FDF7B2F8FF25FF2374
:104E20001F4AED0013701F4B02929C4605236544F8
:104E30006B604046FFF7A0FD1B4B10221800414657
:104E40000593FDF7CBFD0123089A13700CE0BFF327
:104E50005F8F00234A46136088F31088013E2BE7DA
:104E60000F4B0293104B0593BFF35F8F00220A4B49
:104E70001A6087F31088DCE5FDF782F80EE700255D
:104E8000EBB2CDE70225EBB2CAE7C0460000064010
:104E9000FFFFFF7FC0000020300100D00000034072
:104EA0009FC6002008000340D000002010B5FFF787
:104EB000ABFD10BD10B5024800F00CF810BDC046A7
:104EC00048C5002010B508220149FDF787FD10BD37
:104ED00048C5002030B5002589B004000922002112
:104EE00001A80095FDF774FD0922002105A804958D
:104EF000FDF76EFD4B236A466846137004A90D2228
:104F00000FF00EFA1521082220006944FDF766FD16
:104F100009B030BD10B501F007FC00F071FB00F0E6
:104F200093FD00F061FE06F003FA01F08DFC07F03E
:104F300027FE00F085F906F06DF910BD40BA80B289
:104F40007047C04600BA7047F0B5C646584D0400D9
:104F50002B68884600B5002B03D02A7A824200D104
:104F60007CE0544E2701EB68002B02D02A7DA24240
:104F70006AD0AB69002B03D02022AA5CA24259D090
:104F80006B6A002B03D02C22AA5CA2422CD03B19C6
:104F90001B01F318DB7B002C35D0B27A022A68D0D3
:104FA000012C35D08D225200B25C022A00D172E071
:104FB000022C31D0404AB25C022A00D172E0032CAC
:104FC0002AD1032B0DD83D4D9B00585906F082FC89
:104FD00000223F193F01F719FB7B9B005A51042324
:104FE000FB7380BCB846F0BD381900011030414653
:104FF000AA6A3018984700236B623B191B01F3180B
:10500000DB7B002CC9D18D225200B25C022A3BD03E
:10501000294AB25C022A32D0294AB25C022AD0D193
:10502000284AB25C9A42CCD104223B191B01F318E6
:10503000DA73D6E73819000110304146EA693018B2
:1050400098470023AB619BE73819000110304146B7
:105050002A69301898470023EB608AE7070138185F
:10506000144E000110306A683018984700232B60F6
:1050700079E7F27B9A42D7D0012C93D1C8E7124A44
:10508000B25C9A42C8D1CFE72022FF32B25C9A428A
:1050900000D08FE7C8E72022FF32B25C9A4200D0EE
:1050A00086E7C1E7084AB25C9A4200D087E7BBE7CF
:1050B000C0140020F81400202A020000B0140020C0
:1050C0003A0300003F0300002F020000564BF0B5EA
:1050D0004546DE4657464E4698460301E0B59B4698
:1050E0001D1843462D015E19F37A070089B0012B84
:1050F00000D996E04D4A9B00D4580192002C00D173
:1051000085E01035454428000EF00AFEA02212303A
:1051100081B29200362000F05FFF8146002869D0FE
:1051200005AC0C2200212000FDF752FC3089FFF76E
:1051300005FF01232080A3700C22FF332100484685
:10514000A38001F029FA3A4B0C269A464346013DCA
:10515000029703936A786F1C3B0000242E2A07D124
:105160005AE05A780134E4B2591C2E2A49D00B0077
:10517000002AF6D1DA1B92B290461D002200B21826
:10518000524534DC22003100484601F0BFFA731C5E
:105190009BB2A41942463900484601F039FAA4B23C
:1051A0002B78661CB6B2002BD4D1039B00223100B1
:1051B00048469846029F01F0A9FA1E4B0234042289
:1051C000049304A9A3B2484601F022FA3B000199D6
:1051D0005B448C461B014344DA7ADB7B16499B0017
:1051E0009200585862443523494606F01DFB484654
:1051F00001F06EF809B0F0BCBB46B246A946A04625
:10520000F0BD5B1B9BB2984622000D00B7E7002162
:10521000FFF79AFEB472EDE700233D0000229846A6
:10522000ADE70648FBF71CFCF8140020F014002042
:10523000FEFF000000010001B0140020044901102D
:105240007047C046012800D97047054B80000029EF
:1052500002D00A68C250F7E7024A1268C250F3E768
:10526000F0140020D4600110F8B5DE4657464E46D3
:1052700045460223E0B5474E002534009B460027F3
:10528000A37A022B39D030D8002B22D08D235B009B
:105290009846414B9946414B9A46FFF707FEB37A31
:1052A00080B2022B41D04346F35C022B44D04B46E4
:1052B000F35C022B49D05346F35C022B4ED05B4685
:1052C000A37201232081E772280023736773FFF71D
:1052D000FDFE01351134EDB2FF34042DD0D1F0BC08
:1052E000BB46B246A946A046F8BD032B4FD1236862
:1052F000002B13D10023A372EBE7237B013BDBB22E
:105300002373002BE5D1637B0133DBB26373042B82
:105310002AD023732800FFF7D9FEDAE7013B236088
:10532000002BD6D10023A372D3E733898342B4D0B4
:105330004346F35C022BBAD11733FF33F35A83424F
:10534000ABD04B46F35C022BB5D18A239B00F35ABA
:105350008342A2D05346F35C022BB0D1CE239B00F4
:10536000F35A8342ABD198E7E37A002B08D10C4A79
:105370005268002A04D001226373E2722273C9E7E3
:1053800000212800FFF7E0FD0023A372A1E70548F4
:10539000FBF766FBF81400202A0200003A03000025
:1053A000F0140020384901100123F0B51E00002739
:1053B0000640184205D0002931DD077801393F0247
:1053C0000130012932DD023901220D009543821C92
:1053D000AD18030000221C8802331219AB42FAD127
:1053E0004C08651C6D0064004019091B01290CD094
:1053F000BA18130C1204120CD318180C1B041B0C33
:10540000C018002E0CD180B2F0BDFF2301789F435D
:105410000F43BFB2BB181A0C1B041B0CECE7002097
:10542000030600041B0C000E1843ECE70022DDE726
:10543000F8B557464E46DE464546E0B591460A9ACF
:105440008A4611681B680A04120C090C52181904C8
:10545000090C52181B0C9B181A0C1B041B0CD3189C
:105460001F0C1B041B0C0400FF18002825D0002370
:105470009B46FF3301269846658960682900FFF73F
:1054800093FFC019070C0004000C3F182E4209D0EE
:105490005B46414673403A069B463B0A120C0B4062
:1054A0001A4317002468002CE6D15B46002B04D079
:1054B0003A063F04120C3F0E17435046FFF73EFDDD
:1054C00004004846FFF73AFD2318DB191A0C1B04A9
:1054D0001B0CD318180C1B041B0CC018C04380B243
:1054E000F0BCBB46B246A946A046F8BD10B582B096
:1054F000049C0094FFF79CFF02B010BD0123F0B59F
:105500001E0000270640184205D0002932D0077837
:1055100001393F020130012933DD023901220D003A
:105520009543821CAD18030000221C880233121917
:10553000AB42FAD14C08651C6D0064004019091B90
:1055400001290DD0BA18130C1204120CD318180C20
:105550001B041B0CC018002E0DD1C04380B2F0BD3F
:10556000FF2301789F430F43BFB2BB181A0C1B04E3
:105570001B0CEBE70020030600041B0C000E184375
:10558000EBE70022DCE7C046F8B5CE46474604000C
:1055900080B500282FD000239946FF33002701262D
:1055A0009846658960682900FFF7FEFEC019070C60
:1055B0000004000C3F182E4209D04B464146734070
:1055C0003A0699463B0A120C0B401A43170024680E
:1055D000002CE6D14B46002B0AD038063B04000CC9
:1055E0001B0E1843C04380B2C0BCB946B046F8BDDC
:1055F000F84380B2F8E70148F6E7C046FFFF000035
:1056000003220B4B002193430A4A19711360FA22BB
:10561000094912019818086001211A6001710749AF
:10562000995007490B60C621064B5A527047C04635
:1056300087B500207CB5002080B50020A00FA00F0A
:105640007019002074190020F0B5DE4657464E460A
:105650004546E0B583B000286FD0830700D07EE0D8
:105660000300434A083B14689C4200D974E0414A55
:105670000C301568854200D26EE01A79002A00D1FC
:1056800073E05A8819889446FA22120191420CD884
:1056900094450AD8A046181B80B28146E044604574
:1056A00006D042461288824202D03348FBF7D8F92E
:1056B0006618B54202D072884A45F6D100221A71A6
:1056C0002E4A924612680192934202D252460193A8
:1056D00013602B4AC82093460700125A5846521AA4
:1056E0004A44C2539D423DD9B34214D03279002A74
:1056F00011D1B5420FD0019A964229D0FA223188B1
:1057000012011980914206D04846621850805A888A
:10571000A0469446E04443450FD042461279002A01
:105720000BD1019A93420FD043461980FA231B01F3
:10573000994202D063466418638003B0F0BCBB4654
:10574000B246A946A046F0BD534642461A60EBE772
:10575000524601931360D1E70A48FBF781F90A48E2
:10576000FBF77EF90948FBF77BF90948FBF778F965
:105770007CB5002080B50020C049011070190020C0
:10578000741900207C49011058490110F449011096
:1057900098490110F0B5D6464F464646494ACB1CBB
:1057A000C0B513400B2B4FD9FA22120193424ED8A9
:1057B00099424CD8444A1768874200D979E0434A55
:1057C0001268824200D874E008225242944684440F
:1057D00061460D8862462C00D21B083C92B2A4B2EE
:1057E000A11A89B2994267D329D07E19B046367979
:1057F000002E2ED1FA2109018D4260D041461500BC
:1058000009880835894632495D190E68ADB24645AA
:105810004CD07E1900213171494631806146728039
:105820000D803188FA263601B14201D079184D80B9
:10583000C8252849141B4A5B14191B194B53E0BC9B
:10584000BA46B146A846F0BD0C239942B2D9002011
:10585000F5E71E001436B6B2B142F0D31600083692
:105860009E19B1B28A46FA2109018D4227D05146CC
:10587000174E7918B04636688E4201D946463160D7
:1058800000260D800E71654656464A802E80FA2508
:1058900009882D01A94201D079184E80121BC82415
:1058A0000C490D5B52199B180B53C8E77E190E600B
:1058B000B0E70948FBF7D4F80848FBF7D1F80848E7
:1058C000FBF7CEF8FCFF00007CB5002080B500207F
:1058D0007019002074190020104A0110284A011084
:1058E000484A0110F8B5DE4657464E464546E0B5F3
:1058F000002834D04C4BC51C1D400B2D36D9FA2343
:105900001B019D422BD8A84229D8484BFA229C461D
:105910001B6812019B46464B521B1E685B469B1B35
:1059200098B21B0490461B0C9A4213D908277F4259
:1059300008E01488FB1A1B19AB4219D2230020007F
:10594000984507D9F21811790029F2D01088030080
:105950009845F7D8C421374B5A5A01325A52002081
:10596000F0BCBB46B246A946A046F8BD0C25CAE726
:105970001427B846A84443452CD2C82101238846A1
:10598000082713712B4B595A091A64184146B84617
:10599000A4B25C520231585AA844A04200D25C52D0
:1059A000254B1868130093450FD04346D3189842EF
:1059B00037D3100008309207D2D02048FBF750F8B8
:1059C0001B88F3181979002901D09842F8D1614653
:1059D0000B60EAE708239846A8444346FA27C31811
:1059E0003F019BB2BA46BB4218D0F718397101216A
:1059F0003C807880138011713988514501D071182D
:105A00004B80C8200B490B5A0833EB189BB20B5242
:105A100002300C5A9C42C3D20B52C1E70848FBF734
:105A20001FF80848FBF71CF8FCFF00007019002065
:105A30007CB500207419002080B500208C4A01102C
:105A4000484A01105C4A01101F4B204AF0B59446A9
:105A5000454600229846282357464E46DE46924643
:105A60009B46033204249146E0B5194E194F1A4B58
:105A7000B3446146504632680860494603338B435D
:105A8000002C0CD095880021002200E00300013298
:105A9000196058191900A242F8DB624613604346A8
:105AA0007C80043680C39846B34506D03268D368FC
:105AB00017689C46D4889368DBE7F0BCBB46B246C7
:105AC000A946A046F0BDC046441A00205CB500209F
:105AD000144B01102CB500201CB4002070B509280F
